{
  "_format": "hh-sol-artifact-1",
  "contractName": "FileShare",
  "sourceName": "contracts/FileShare.sol",
  "abi": [
    {
      "inputs": [
        {
          "internalType": "string",
          "name": "_url",
          "type": "string"
        }
      ],
      "name": "deleteFile",
      "outputs": [],
      "stateMutability": "nonpayable",
      "type": "function"
    },
    {
      "inputs": [],
      "name": "displayFilesSharedWithMe",
      "outputs": [
        {
          "internalType": "string[]",
          "name": "",
          "type": "string[]"
        }
      ],
      "stateMutability": "view",
      "type": "function"
    },
    {
      "inputs": [],
      "name": "displayOwnedFiles",
      "outputs": [
        {
          "internalType": "string[]",
          "name": "",
          "type": "string[]"
        }
      ],
      "stateMutability": "view",
      "type": "function"
    },
    {
      "inputs": [
        {
          "internalType": "string",
          "name": "_url",
          "type": "string"
        },
        {
          "internalType": "address",
          "name": "_temporaryOwner",
          "type": "address"
        }
      ],
      "name": "grantAccess",
      "outputs": [],
      "stateMutability": "nonpayable",
      "type": "function"
    },
    {
      "inputs": [
        {
          "internalType": "string",
          "name": "_url",
          "type": "string"
        },
        {
          "internalType": "address",
          "name": "_user",
          "type": "address"
        }
      ],
      "name": "hasAccess",
      "outputs": [
        {
          "internalType": "bool",
          "name": "",
          "type": "bool"
        }
      ],
      "stateMutability": "view",
      "type": "function"
    },
    {
      "inputs": [
        {
          "internalType": "string",
          "name": "_url",
          "type": "string"
        },
        {
          "internalType": "address",
          "name": "_temporaryOwner",
          "type": "address"
        }
      ],
      "name": "revokeAccess",
      "outputs": [],
      "stateMutability": "nonpayable",
      "type": "function"
    },
    {
      "inputs": [
        {
          "internalType": "string",
          "name": "_url",
          "type": "string"
        },
        {
          "internalType": "string",
          "name": "_filename",
          "type": "string"
        },
        {
          "internalType": "uint256",
          "name": "_filesize",
          "type": "uint256"
        }
      ],
      "name": "uploadfile",
      "outputs": [],
      "stateMutability": "nonpayable",
      "type": "function"
    }
  ],
  "bytecode": "0x608060405234801561001057600080fd5b50612666806100206000396000f3fe608060405234801561001057600080fd5b506004361061007d5760003560e01c8063ca7725c71161005b578063ca7725c7146100ea578063dfe0b5fe14610108578063f340dfd414610124578063f37c215e146101425761007d565b806313bd20e2146100825780636643ba31146100b2578063a9910054146100ce575b600080fd5b61009c60048036038101906100979190611c4a565b61015e565b6040516100a99190611cc1565b60405180910390f35b6100cc60048036038101906100c79190611d12565b610233565b005b6100e860048036038101906100e39190611d9d565b610438565b005b6100f2610bfe565b6040516100ff9190611f30565b60405180910390f35b610122600480360381019061011d9190611c4a565b610d14565b005b61012c61146c565b6040516101399190611f30565b60405180910390f35b61015c60048036038101906101579190611c4a565b611582565b005b6000806000846040516101719190611f8e565b908152602001604051809103902090508060000160009054906101000a900473ffffffffffffffffffffffffffffffffffffffff1673ffffffffffffffffffffffffffffffffffffffff168373ffffffffffffffffffffffffffffffffffffffff16148061022a57508060010160008473ffffffffffffffffffffffffffffffffffffffff1673ffffffffffffffffffffffffffffffffffffffff16815260200190815260200160002060009054906101000a900460ff165b91505092915050565b6000835111610277576040517f08c379a000000000000000000000000000000000000000000000000000000000815260040161026e90612002565b60405180910390fd5b60008251116102bb576040517f08c379a00000000000000000000000000000000000000000000000000000000081526004016102b29061206e565b60405180910390fd5b600081116102fe576040517f08c379a00000000000000000000000000000000000000000000000000000000081526004016102f590612100565b60405180910390fd5b3360008460405161030f9190611f8e565b908152602001604051809103902060000160006101000a81548173ffffffffffffffffffffffffffffffffffffffff021916908373ffffffffffffffffffffffffffffffffffffffff1602179055508160008460405161036f9190611f8e565b90815260200160405180910390206002019080519060200190610393929190611901565b50806000846040516103a59190611f8e565b908152602001604051809103902060030181905550600160003373ffffffffffffffffffffffffffffffffffffffff1673ffffffffffffffffffffffffffffffffffffffff16815260200190815260200160002083908060018154018082558091505060019003906000526020600020016000909190919091509080519060200190610432929190611901565b50505050565b6000816040516104489190611f8e565b908152602001604051809103902060000160009054906101000a900473ffffffffffffffffffffffffffffffffffffffff1673ffffffffffffffffffffffffffffffffffffffff163373ffffffffffffffffffffffffffffffffffffffff16146104e7576040517f08c379a00000000000000000000000000000000000000000000000000000000081526004016104de90612192565b60405180910390fd5b600073ffffffffffffffffffffffffffffffffffffffff1660008260405161050f9190611f8e565b908152602001604051809103902060000160009054906101000a900473ffffffffffffffffffffffffffffffffffffffff1673ffffffffffffffffffffffffffffffffffffffff161415610598576040517f08c379a000000000000000000000000000000000000000000000000000000000815260040161058f906121fe565b60405180910390fd5b60005b600160003373ffffffffffffffffffffffffffffffffffffffff1673ffffffffffffffffffffffffffffffffffffffff1681526020019081526020016000208054905081101561083357816040516020016105f69190611f8e565b60405160208183030381529060405280519060200120600160003373ffffffffffffffffffffffffffffffffffffffff1673ffffffffffffffffffffffffffffffffffffffff168152602001908152602001600020828154811061065d5761065c61221e565b5b906000526020600020016040516020016106779190612342565b60405160208183030381529060405280519060200120141561082057600160003373ffffffffffffffffffffffffffffffffffffffff1673ffffffffffffffffffffffffffffffffffffffff16815260200190815260200160002060018060003373ffffffffffffffffffffffffffffffffffffffff1673ffffffffffffffffffffffffffffffffffffffff168152602001908152602001600020805490506107209190612388565b815481106107315761073061221e565b5b90600052602060002001600160003373ffffffffffffffffffffffffffffffffffffffff1673ffffffffffffffffffffffffffffffffffffffff168152602001908152602001600020828154811061078c5761078b61221e565b5b906000526020600020019080546107a29061227c565b6107ad929190611987565b50600160003373ffffffffffffffffffffffffffffffffffffffff1673ffffffffffffffffffffffffffffffffffffffff1681526020019081526020016000208054806107fd576107fc6123bc565b5b6001900381819060005260206000200160006108199190611a14565b9055610833565b808061082b906123eb565b91505061059b565b5060005b6003826040516108479190611f8e565b908152602001604051809103902080549050811015610b705760006003836040516108729190611f8e565b908152602001604051809103902082815481106108925761089161221e565b5b9060005260206000200160009054906101000a900473ffffffffffffffffffffffffffffffffffffffff16905060005b600260008373ffffffffffffffffffffffffffffffffffffffff1673ffffffffffffffffffffffffffffffffffffffff16815260200190815260200160002080549050811015610b5b578360405160200161091d9190611f8e565b60405160208183030381529060405280519060200120600260008473ffffffffffffffffffffffffffffffffffffffff1673ffffffffffffffffffffffffffffffffffffffff16815260200190815260200160002082815481106109845761098361221e565b5b9060005260206000200160405160200161099e9190612342565b604051602081830303815290604052805190602001201415610b4857600260008373ffffffffffffffffffffffffffffffffffffffff1673ffffffffffffffffffffffffffffffffffffffff1681526020019081526020016000206001600260008573ffffffffffffffffffffffffffffffffffffffff1673ffffffffffffffffffffffffffffffffffffffff16815260200190815260200160002080549050610a489190612388565b81548110610a5957610a5861221e565b5b90600052602060002001600260008473ffffffffffffffffffffffffffffffffffffffff1673ffffffffffffffffffffffffffffffffffffffff1681526020019081526020016000208281548110610ab457610ab361221e565b5b90600052602060002001908054610aca9061227c565b610ad5929190611987565b50600260008373ffffffffffffffffffffffffffffffffffffffff1673ffffffffffffffffffffffffffffffffffffffff168152602001908152602001600020805480610b2557610b246123bc565b5b600190038181906000526020600020016000610b419190611a14565b9055610b5b565b8080610b53906123eb565b9150506108c2565b50508080610b68906123eb565b915050610837565b50600081604051610b819190611f8e565b9081526020016040518091039020600080820160006101000a81549073ffffffffffffffffffffffffffffffffffffffff0219169055600282016000610bc79190611a14565b60038201600090555050600381604051610be19190611f8e565b90815260200160405180910390206000610bfb9190611a54565b50565b6060600260003373ffffffffffffffffffffffffffffffffffffffff1673ffffffffffffffffffffffffffffffffffffffff168152602001908152602001600020805480602002602001604051908101604052809291908181526020016000905b82821015610d0b578382906000526020600020018054610c7e9061227c565b80601f0160208091040260200160405190810160405280929190818152602001828054610caa9061227c565b8015610cf75780601f10610ccc57610100808354040283529160200191610cf7565b820191906000526020600020905b815481529060010190602001808311610cda57829003601f168201915b505050505081526020019060010190610c5f565b50505050905090565b600082604051610d249190611f8e565b908152602001604051809103902060000160009054906101000a900473ffffffffffffffffffffffffffffffffffffffff1673ffffffffffffffffffffffffffffffffffffffff163373ffffffffffffffffffffffffffffffffffffffff1614610dc3576040517f08c379a0000000000000000000000000000000000000000000000000000000008152600401610dba906124a6565b60405180910390fd5b600073ffffffffffffffffffffffffffffffffffffffff16600083604051610deb9190611f8e565b908152602001604051809103902060000160009054906101000a900473ffffffffffffffffffffffffffffffffffffffff1673ffffffffffffffffffffffffffffffffffffffff161415610e74576040517f08c379a0000000000000000000000000000000000000000000000000000000008152600401610e6b906121fe565b60405180910390fd5b600082604051610e849190611f8e565b908152602001604051809103902060010160008273ffffffffffffffffffffffffffffffffffffffff1673ffffffffffffffffffffffffffffffffffffffff16815260200190815260200160002060009054906101000a900460ff16610f1f576040517f08c379a0000000000000000000000000000000000000000000000000000000008152600401610f1690612512565b60405180910390fd5b60008083604051610f309190611f8e565b908152602001604051809103902060010160008373ffffffffffffffffffffffffffffffffffffffff1673ffffffffffffffffffffffffffffffffffffffff16815260200190815260200160002060006101000a81548160ff02191690831515021790555060005b600260008373ffffffffffffffffffffffffffffffffffffffff1673ffffffffffffffffffffffffffffffffffffffff168152602001908152602001600020805490508110156112315782604051602001610ff39190611f8e565b60405160208183030381529060405280519060200120600260008473ffffffffffffffffffffffffffffffffffffffff1673ffffffffffffffffffffffffffffffffffffffff168152602001908152602001600020828154811061105a5761105961221e565b5b906000526020600020016040516020016110749190612342565b60405160208183030381529060405280519060200120141561121e57600260008373ffffffffffffffffffffffffffffffffffffffff1673ffffffffffffffffffffffffffffffffffffffff1681526020019081526020016000206001600260008573ffffffffffffffffffffffffffffffffffffffff1673ffffffffffffffffffffffffffffffffffffffff1681526020019081526020016000208054905061111e9190612388565b8154811061112f5761112e61221e565b5b90600052602060002001600260008473ffffffffffffffffffffffffffffffffffffffff1673ffffffffffffffffffffffffffffffffffffffff168152602001908152602001600020828154811061118a5761118961221e565b5b906000526020600020019080546111a09061227c565b6111ab929190611987565b50600260008373ffffffffffffffffffffffffffffffffffffffff1673ffffffffffffffffffffffffffffffffffffffff1681526020019081526020016000208054806111fb576111fa6123bc565b5b6001900381819060005260206000200160006112179190611a14565b9055611231565b8080611229906123eb565b915050610f98565b5060005b6003836040516112459190611f8e565b908152602001604051809103902080549050811015611467578173ffffffffffffffffffffffffffffffffffffffff166003846040516112859190611f8e565b908152602001604051809103902082815481106112a5576112a461221e565b5b9060005260206000200160009054906101000a900473ffffffffffffffffffffffffffffffffffffffff1673ffffffffffffffffffffffffffffffffffffffff161415611454576003836040516112fc9190611f8e565b9081526020016040518091039020600160038560405161131c9190611f8e565b9081526020016040518091039020805490506113389190612388565b815481106113495761134861221e565b5b9060005260206000200160009054906101000a900473ffffffffffffffffffffffffffffffffffffffff166003846040516113849190611f8e565b908152602001604051809103902082815481106113a4576113a361221e565b5b9060005260206000200160006101000a81548173ffffffffffffffffffffffffffffffffffffffff021916908373ffffffffffffffffffffffffffffffffffffffff1602179055506003836040516113fc9190611f8e565b908152602001604051809103902080548061141a576114196123bc565b5b6001900381819060005260206000200160006101000a81549073ffffffffffffffffffffffffffffffffffffffff02191690559055611467565b808061145f906123eb565b915050611235565b505050565b6060600160003373ffffffffffffffffffffffffffffffffffffffff1673ffffffffffffffffffffffffffffffffffffffff168152602001908152602001600020805480602002602001604051908101604052809291908181526020016000905b828210156115795783829060005260206000200180546114ec9061227c565b80601f01602080910402602001604051908101604052809291908181526020018280546115189061227c565b80156115655780601f1061153a57610100808354040283529160200191611565565b820191906000526020600020905b81548152906001019060200180831161154857829003601f168201915b5050505050815260200190600101906114cd565b50505050905090565b6000826040516115929190611f8e565b908152602001604051809103902060000160009054906101000a900473ffffffffffffffffffffffffffffffffffffffff1673ffffffffffffffffffffffffffffffffffffffff163373ffffffffffffffffffffffffffffffffffffffff1614611631576040517f08c379a0000000000000000000000000000000000000000000000000000000008152600401611628906125a4565b60405180910390fd5b600073ffffffffffffffffffffffffffffffffffffffff166000836040516116599190611f8e565b908152602001604051809103902060000160009054906101000a900473ffffffffffffffffffffffffffffffffffffffff1673ffffffffffffffffffffffffffffffffffffffff1614156116e2576040517f08c379a00000000000000000000000000000000000000000000000000000000081526004016116d9906121fe565b60405180910390fd5b6000826040516116f29190611f8e565b908152602001604051809103902060010160008273ffffffffffffffffffffffffffffffffffffffff1673ffffffffffffffffffffffffffffffffffffffff16815260200190815260200160002060009054906101000a900460ff161561178e576040517f08c379a000000000000000000000000000000000000000000000000000000000815260040161178590612610565b60405180910390fd5b60016000836040516117a09190611f8e565b908152602001604051809103902060010160008373ffffffffffffffffffffffffffffffffffffffff1673ffffffffffffffffffffffffffffffffffffffff16815260200190815260200160002060006101000a81548160ff021916908315150217905550600260008273ffffffffffffffffffffffffffffffffffffffff1673ffffffffffffffffffffffffffffffffffffffff1681526020019081526020016000208290806001815401808255809150506001900390600052602060002001600090919091909150908051906020019061187d929190611901565b5060038260405161188e9190611f8e565b9081526020016040518091039020819080600181540180825580915050600190039060005260206000200160009091909190916101000a81548173ffffffffffffffffffffffffffffffffffffffff021916908373ffffffffffffffffffffffffffffffffffffffff1602179055505050565b82805461190d9061227c565b90600052602060002090601f01602090048101928261192f5760008555611976565b82601f1061194857805160ff1916838001178555611976565b82800160010185558215611976579182015b8281111561197557825182559160200191906001019061195a565b5b5090506119839190611a75565b5090565b8280546119939061227c565b90600052602060002090601f0160209004810192826119b55760008555611a03565b82601f106119c65780548555611a03565b82800160010185558215611a0357600052602060002091601f016020900482015b82811115611a025782548255916001019190600101906119e7565b5b509050611a109190611a75565b5090565b508054611a209061227c565b6000825580601f10611a325750611a51565b601f016020900490600052602060002090810190611a509190611a75565b5b50565b5080546000825590600052602060002090810190611a729190611a75565b50565b5b80821115611a8e576000816000905550600101611a76565b5090565b6000604051905090565b600080fd5b600080fd5b600080fd5b600080fd5b6000601f19601f8301169050919050565b7f4e487b7100000000000000000000000000000000000000000000000000000000600052604160045260246000fd5b611af982611ab0565b810181811067ffffffffffffffff82111715611b1857611b17611ac1565b5b80604052505050565b6000611b2b611a92565b9050611b378282611af0565b919050565b600067ffffffffffffffff821115611b5757611b56611ac1565b5b611b6082611ab0565b9050602081019050919050565b82818337600083830152505050565b6000611b8f611b8a84611b3c565b611b21565b905082815260208101848484011115611bab57611baa611aab565b5b611bb6848285611b6d565b509392505050565b600082601f830112611bd357611bd2611aa6565b5b8135611be3848260208601611b7c565b91505092915050565b600073ffffffffffffffffffffffffffffffffffffffff82169050919050565b6000611c1782611bec565b9050919050565b611c2781611c0c565b8114611c3257600080fd5b50565b600081359050611c4481611c1e565b92915050565b60008060408385031215611c6157611c60611a9c565b5b600083013567ffffffffffffffff811115611c7f57611c7e611aa1565b5b611c8b85828601611bbe565b9250506020611c9c85828601611c35565b9150509250929050565b60008115159050919050565b611cbb81611ca6565b82525050565b6000602082019050611cd66000830184611cb2565b92915050565b6000819050919050565b611cef81611cdc565b8114611cfa57600080fd5b50565b600081359050611d0c81611ce6565b92915050565b600080600060608486031215611d2b57611d2a611a9c565b5b600084013567ffffffffffffffff811115611d4957611d48611aa1565b5b611d5586828701611bbe565b935050602084013567ffffffffffffffff811115611d7657611d75611aa1565b5b611d8286828701611bbe565b9250506040611d9386828701611cfd565b9150509250925092565b600060208284031215611db357611db2611a9c565b5b600082013567ffffffffffffffff811115611dd157611dd0611aa1565b5b611ddd84828501611bbe565b91505092915050565b600081519050919050565b600082825260208201905092915050565b6000819050602082019050919050565b600081519050919050565b600082825260208201905092915050565b60005b83811015611e4c578082015181840152602081019050611e31565b83811115611e5b576000848401525b50505050565b6000611e6c82611e12565b611e768185611e1d565b9350611e86818560208601611e2e565b611e8f81611ab0565b840191505092915050565b6000611ea68383611e61565b905092915050565b6000602082019050919050565b6000611ec682611de6565b611ed08185611df1565b935083602082028501611ee285611e02565b8060005b85811015611f1e5784840389528151611eff8582611e9a565b9450611f0a83611eae565b925060208a01995050600181019050611ee6565b50829750879550505050505092915050565b60006020820190508181036000830152611f4a8184611ebb565b905092915050565b600081905092915050565b6000611f6882611e12565b611f728185611f52565b9350611f82818560208601611e2e565b80840191505092915050565b6000611f9a8284611f5d565b915081905092915050565b600082825260208201905092915050565b7f46696c652055524c2063616e6e6f7420626520656d7074792e00000000000000600082015250565b6000611fec601983611fa5565b9150611ff782611fb6565b602082019050919050565b6000602082019050818103600083015261201b81611fdf565b9050919050565b7f46696c656e616d652063616e6e6f7420626520656d7074792e00000000000000600082015250565b6000612058601983611fa5565b915061206382612022565b602082019050919050565b600060208201905081810360008301526120878161204b565b9050919050565b7f46696c652073697a65206d7573742062652067726561746572207468616e203060008201527f2e00000000000000000000000000000000000000000000000000000000000000602082015250565b60006120ea602183611fa5565b91506120f58261208e565b604082019050919050565b60006020820190508181036000830152612119816120dd565b9050919050565b7f4f6e6c7920746865207072696d617279206f776e65722063616e2064656c657460008201527f65207468652066696c652e000000000000000000000000000000000000000000602082015250565b600061217c602b83611fa5565b915061218782612120565b604082019050919050565b600060208201905081810360008301526121ab8161216f565b9050919050565b7f46696c6520646f6573206e6f742065786973742e000000000000000000000000600082015250565b60006121e8601483611fa5565b91506121f3826121b2565b602082019050919050565b60006020820190508181036000830152612217816121db565b9050919050565b7f4e487b7100000000000000000000000000000000000000000000000000000000600052603260045260246000fd5b7f4e487b7100000000000000000000000000000000000000000000000000000000600052602260045260246000fd5b6000600282049050600182168061229457607f821691505b602082108114156122a8576122a761224d565b5b50919050565b60008190508160005260206000209050919050565b600081546122d08161227c565b6122da8186611f52565b945060018216600081146122f5576001811461230657612339565b60ff19831686528186019350612339565b61230f856122ae565b60005b8381101561233157815481890152600182019150602081019050612312565b838801955050505b50505092915050565b600061234e82846122c3565b915081905092915050565b7f4e487b7100000000000000000000000000000000000000000000000000000000600052601160045260246000fd5b600061239382611cdc565b915061239e83611cdc565b9250828210156123b1576123b0612359565b5b828203905092915050565b7f4e487b7100000000000000000000000000000000000000000000000000000000600052603160045260246000fd5b60006123f682611cdc565b91507fffffffffffffffffffffffffffffffffffffffffffffffffffffffffffffffff82141561242957612428612359565b5b600182019050919050565b7f4f6e6c7920746865207072696d617279206f776e65722063616e207265766f6b60008201527f65206163636573732e0000000000000000000000000000000000000000000000602082015250565b6000612490602983611fa5565b915061249b82612434565b604082019050919050565b600060208201905081810360008301526124bf81612483565b9050919050565b7f41636365737320686173206e6f74206265656e206772616e7465642e00000000600082015250565b60006124fc601c83611fa5565b9150612507826124c6565b602082019050919050565b6000602082019050818103600083015261252b816124ef565b9050919050565b7f4f6e6c7920746865207072696d617279206f776e65722063616e206772616e7460008201527f206163636573732e000000000000000000000000000000000000000000000000602082015250565b600061258e602883611fa5565b915061259982612532565b604082019050919050565b600060208201905081810360008301526125bd81612581565b9050919050565b7f4163636573732068617320616c7265616479206265656e206772616e7465642e600082015250565b60006125fa602083611fa5565b9150612605826125c4565b602082019050919050565b60006020820190508181036000830152612629816125ed565b905091905056fea264697066735822122030a7499bd1ae5e6613d758468680e4b5c7fd4ccb8727204bf800e2e9d5b4bb3564736f6c63430008090033",
  "linkReferences": {},
  "deployedLinkReferences": {}
}